{
  "contractName": "BasicToken",
  "abi": [
    {
      "inputs": [],
      "stateMutability": "payable",
      "type": "constructor",
      "payable": true
    },
    {
      "anonymous": false,
      "inputs": [
        {
          "indexed": true,
          "internalType": "address",
          "name": "owner",
          "type": "address"
        },
        {
          "indexed": true,
          "internalType": "address",
          "name": "spender",
          "type": "address"
        },
        {
          "indexed": false,
          "internalType": "uint256",
          "name": "value",
          "type": "uint256"
        }
      ],
      "name": "Approval",
      "type": "event"
    },
    {
      "anonymous": false,
      "inputs": [
        {
          "indexed": true,
          "internalType": "address",
          "name": "previousOwner",
          "type": "address"
        },
        {
          "indexed": true,
          "internalType": "address",
          "name": "newOwner",
          "type": "address"
        }
      ],
      "name": "OwnershipTransferred",
      "type": "event"
    },
    {
      "anonymous": false,
      "inputs": [
        {
          "indexed": true,
          "internalType": "address",
          "name": "from",
          "type": "address"
        },
        {
          "indexed": true,
          "internalType": "address",
          "name": "to",
          "type": "address"
        },
        {
          "indexed": false,
          "internalType": "uint256",
          "name": "value",
          "type": "uint256"
        }
      ],
      "name": "Transfer",
      "type": "event"
    },
    {
      "inputs": [
        {
          "internalType": "address",
          "name": "owner",
          "type": "address"
        },
        {
          "internalType": "address",
          "name": "spender",
          "type": "address"
        }
      ],
      "name": "allowance",
      "outputs": [
        {
          "internalType": "uint256",
          "name": "",
          "type": "uint256"
        }
      ],
      "stateMutability": "view",
      "type": "function",
      "constant": true
    },
    {
      "inputs": [
        {
          "internalType": "address",
          "name": "spender",
          "type": "address"
        },
        {
          "internalType": "uint256",
          "name": "amount",
          "type": "uint256"
        }
      ],
      "name": "approve",
      "outputs": [
        {
          "internalType": "bool",
          "name": "",
          "type": "bool"
        }
      ],
      "stateMutability": "nonpayable",
      "type": "function"
    },
    {
      "inputs": [],
      "name": "balance",
      "outputs": [
        {
          "internalType": "uint256",
          "name": "",
          "type": "uint256"
        }
      ],
      "stateMutability": "view",
      "type": "function",
      "constant": true
    },
    {
      "inputs": [
        {
          "internalType": "address",
          "name": "account",
          "type": "address"
        }
      ],
      "name": "balanceOf",
      "outputs": [
        {
          "internalType": "uint256",
          "name": "",
          "type": "uint256"
        }
      ],
      "stateMutability": "view",
      "type": "function",
      "constant": true
    },
    {
      "inputs": [
        {
          "internalType": "uint256",
          "name": "amount",
          "type": "uint256"
        }
      ],
      "name": "burn",
      "outputs": [],
      "stateMutability": "nonpayable",
      "type": "function"
    },
    {
      "inputs": [
        {
          "internalType": "address",
          "name": "account",
          "type": "address"
        },
        {
          "internalType": "uint256",
          "name": "amount",
          "type": "uint256"
        }
      ],
      "name": "burnFrom",
      "outputs": [],
      "stateMutability": "nonpayable",
      "type": "function"
    },
    {
      "inputs": [],
      "name": "circulating",
      "outputs": [
        {
          "internalType": "uint256",
          "name": "",
          "type": "uint256"
        }
      ],
      "stateMutability": "view",
      "type": "function",
      "constant": true
    },
    {
      "inputs": [],
      "name": "decimals",
      "outputs": [
        {
          "internalType": "uint8",
          "name": "",
          "type": "uint8"
        }
      ],
      "stateMutability": "view",
      "type": "function",
      "constant": true
    },
    {
      "inputs": [
        {
          "internalType": "address",
          "name": "spender",
          "type": "address"
        },
        {
          "internalType": "uint256",
          "name": "subtractedValue",
          "type": "uint256"
        }
      ],
      "name": "decreaseAllowance",
      "outputs": [
        {
          "internalType": "bool",
          "name": "",
          "type": "bool"
        }
      ],
      "stateMutability": "nonpayable",
      "type": "function"
    },
    {
      "inputs": [
        {
          "internalType": "address",
          "name": "spender",
          "type": "address"
        },
        {
          "internalType": "uint256",
          "name": "addedValue",
          "type": "uint256"
        }
      ],
      "name": "increaseAllowance",
      "outputs": [
        {
          "internalType": "bool",
          "name": "",
          "type": "bool"
        }
      ],
      "stateMutability": "nonpayable",
      "type": "function"
    },
    {
      "inputs": [],
      "name": "initialtotalSupply",
      "outputs": [
        {
          "internalType": "uint256",
          "name": "",
          "type": "uint256"
        }
      ],
      "stateMutability": "view",
      "type": "function",
      "constant": true
    },
    {
      "inputs": [],
      "name": "name",
      "outputs": [
        {
          "internalType": "string",
          "name": "",
          "type": "string"
        }
      ],
      "stateMutability": "view",
      "type": "function",
      "constant": true
    },
    {
      "inputs": [],
      "name": "owner",
      "outputs": [
        {
          "internalType": "address",
          "name": "",
          "type": "address"
        }
      ],
      "stateMutability": "view",
      "type": "function",
      "constant": true
    },
    {
      "inputs": [],
      "name": "renounceOwnership",
      "outputs": [],
      "stateMutability": "nonpayable",
      "type": "function"
    },
    {
      "inputs": [],
      "name": "symbol",
      "outputs": [
        {
          "internalType": "string",
          "name": "",
          "type": "string"
        }
      ],
      "stateMutability": "view",
      "type": "function",
      "constant": true
    },
    {
      "inputs": [],
      "name": "totalSupply",
      "outputs": [
        {
          "internalType": "uint256",
          "name": "",
          "type": "uint256"
        }
      ],
      "stateMutability": "view",
      "type": "function",
      "constant": true
    },
    {
      "inputs": [
        {
          "internalType": "address",
          "name": "to",
          "type": "address"
        },
        {
          "internalType": "uint256",
          "name": "amount",
          "type": "uint256"
        }
      ],
      "name": "transfer",
      "outputs": [
        {
          "internalType": "bool",
          "name": "",
          "type": "bool"
        }
      ],
      "stateMutability": "nonpayable",
      "type": "function"
    },
    {
      "inputs": [
        {
          "internalType": "address",
          "name": "from",
          "type": "address"
        },
        {
          "internalType": "address",
          "name": "to",
          "type": "address"
        },
        {
          "internalType": "uint256",
          "name": "amount",
          "type": "uint256"
        }
      ],
      "name": "transferFrom",
      "outputs": [
        {
          "internalType": "bool",
          "name": "",
          "type": "bool"
        }
      ],
      "stateMutability": "nonpayable",
      "type": "function"
    },
    {
      "inputs": [
        {
          "internalType": "address",
          "name": "newOwner",
          "type": "address"
        }
      ],
      "name": "transferOwnership",
      "outputs": [],
      "stateMutability": "nonpayable",
      "type": "function"
    },
    {
      "stateMutability": "payable",
      "type": "receive",
      "payable": true
    },
    {
      "inputs": [
        {
          "internalType": "address payable",
          "name": "_to",
          "type": "address"
        }
      ],
      "name": "sendViaTransfer",
      "outputs": [],
      "stateMutability": "payable",
      "type": "function",
      "payable": true
    },
    {
      "inputs": [
        {
          "internalType": "address payable",
          "name": "_to",
          "type": "address"
        }
      ],
      "name": "sendViaCall",
      "outputs": [],
      "stateMutability": "payable",
      "type": "function",
      "payable": true
    },
    {
      "inputs": [
        {
          "internalType": "uint256",
          "name": "_amount",
          "type": "uint256"
        }
      ],
      "name": "burnTokens",
      "outputs": [],
      "stateMutability": "nonpayable",
      "type": "function"
    },
    {
      "inputs": [
        {
          "internalType": "uint256",
          "name": "_amount",
          "type": "uint256"
        }
      ],
      "name": "mint",
      "outputs": [],
      "stateMutability": "nonpayable",
      "type": "function"
    }
  ],
  "bytecode": "0x60806040526040518060400160405280600a81526020017f4261736963546f6b656e000000000000000000000000000000000000000000008152506040518060400160405280600381526020017f42535400000000000000000000000000000000000000000000000000000000008152508160039080519060200190620000889291906200047f565b508060049080519060200190620000a19291906200047f565b505050620000c4620000b8620000ff60201b60201c565b6200010760201b60201c565b620000df69d3c21bcecceda1000000620001cd60201b60201c565b6a01a784379d99db420000006007819055506000600881905550620007bf565b600033905090565b6000600560009054906101000a900473ffffffffffffffffffffffffffffffffffffffff16905081600560006101000a81548173ffffffffffffffffffffffffffffffffffffffff021916908373ffffffffffffffffffffffffffffffffffffffff1602179055508173ffffffffffffffffffffffffffffffffffffffff168173ffffffffffffffffffffffffffffffffffffffff167f8be0079c531659141344cd1fd0a4f28419497f9722a3daafe3b4186f6b6457e060405160405180910390a35050565b620001dd620000ff60201b60201c565b73ffffffffffffffffffffffffffffffffffffffff1662000203620002d260201b60201c565b73ffffffffffffffffffffffffffffffffffffffff16146200025c576040517f08c379a0000000000000000000000000000000000000000000000000000000008152600401620002539062000590565b60405180910390fd5b60008111620002a2576040517f08c379a0000000000000000000000000000000000000000000000000000000008152600401620002999062000602565b60405180910390fd5b620002b43382620002fc60201b60201c565b8060076000828254620002c891906200065d565b9250508190555050565b6000600560009054906101000a900473ffffffffffffffffffffffffffffffffffffffff16905090565b600073ffffffffffffffffffffffffffffffffffffffff168273ffffffffffffffffffffffffffffffffffffffff1614156200036f576040517f08c379a000000000000000000000000000000000000000000000000000000000815260040162000366906200070a565b60405180910390fd5b62000383600083836200047560201b60201c565b80600260008282546200039791906200065d565b92505081905550806000808473ffffffffffffffffffffffffffffffffffffffff1673ffffffffffffffffffffffffffffffffffffffff1681526020019081526020016000206000828254620003ee91906200065d565b925050819055508173ffffffffffffffffffffffffffffffffffffffff16600073ffffffffffffffffffffffffffffffffffffffff167fddf252ad1be2c89b69c2b068fc378daa952ba7f163c4a11628f55a4df523b3ef836040516200045591906200073d565b60405180910390a362000471600083836200047a60201b60201c565b5050565b505050565b505050565b8280546200048d9062000789565b90600052602060002090601f016020900481019282620004b15760008555620004fd565b82601f10620004cc57805160ff1916838001178555620004fd565b82800160010185558215620004fd579182015b82811115620004fc578251825591602001919060010190620004df565b5b5090506200050c919062000510565b5090565b5b808211156200052b57600081600090555060010162000511565b5090565b600082825260208201905092915050565b7f4f776e61626c653a2063616c6c6572206973206e6f7420746865206f776e6572600082015250565b6000620005786020836200052f565b9150620005858262000540565b602082019050919050565b60006020820190508181036000830152620005ab8162000569565b9050919050565b7f416d6f756e74206d75737420626520686967686572207468616e207a65726f00600082015250565b6000620005ea601f836200052f565b9150620005f782620005b2565b602082019050919050565b600060208201905081810360008301526200061d81620005db565b9050919050565b6000819050919050565b7f4e487b7100000000000000000000000000000000000000000000000000000000600052601160045260246000fd5b60006200066a8262000624565b9150620006778362000624565b9250827fffffffffffffffffffffffffffffffffffffffffffffffffffffffffffffffff03821115620006af57620006ae6200062e565b5b828201905092915050565b7f45524332303a206d696e7420746f20746865207a65726f206164647265737300600082015250565b6000620006f2601f836200052f565b9150620006ff82620006ba565b602082019050919050565b600060208201905081810360008301526200072581620006e3565b9050919050565b620007378162000624565b82525050565b60006020820190506200075460008301846200072c565b92915050565b7f4e487b7100000000000000000000000000000000000000000000000000000000600052602260045260246000fd5b60006002820490506001821680620007a257607f821691505b60208210811415620007b957620007b86200075a565b5b50919050565b61239f80620007cf6000396000f3fe6080604052600436106101445760003560e01c8063715018a6116100b6578063a457c2d71161006f578063a457c2d714610439578063a9059cbb14610476578063b69ef8a8146104b3578063dd62ed3e146104de578063f2fde38b1461051b578063f8718858146105445761014b565b8063715018a61461035e57806379cc679014610375578063830c29ae1461039e5780638da5cb5b146103ba57806395d89b41146103e5578063a0712d68146104105761014b565b8063313ce56711610108578063313ce5671461024b578063395093511461027657806342966c68146102b3578063636e082b146102dc5780636d1b229d146102f857806370a08231146103215761014b565b806306fdde0314610150578063095ea7b31461017b57806318160ddd146101b857806318f71c98146101e357806323b872dd1461020e5761014b565b3661014b57005b600080fd5b34801561015c57600080fd5b5061016561056f565b60405161017291906117b7565b60405180910390f35b34801561018757600080fd5b506101a2600480360381019061019d9190611872565b610601565b6040516101af91906118cd565b60405180910390f35b3480156101c457600080fd5b506101cd610624565b6040516101da91906118f7565b60405180910390f35b3480156101ef57600080fd5b506101f861062e565b60405161020591906118f7565b60405180910390f35b34801561021a57600080fd5b5061023560048036038101906102309190611912565b610634565b60405161024291906118cd565b60405180910390f35b34801561025757600080fd5b50610260610663565b60405161026d9190611981565b60405180910390f35b34801561028257600080fd5b5061029d60048036038101906102989190611872565b61066c565b6040516102aa91906118cd565b60405180910390f35b3480156102bf57600080fd5b506102da60048036038101906102d5919061199c565b610716565b005b6102f660048036038101906102f19190611a07565b61072a565b005b34801561030457600080fd5b5061031f600480360381019061031a919061199c565b610775565b005b34801561032d57600080fd5b5061034860048036038101906103439190611a34565b61085a565b60405161035591906118f7565b60405180910390f35b34801561036a57600080fd5b506103736108a2565b005b34801561038157600080fd5b5061039c60048036038101906103979190611872565b61092a565b005b6103b860048036038101906103b39190611a07565b61094a565b005b3480156103c657600080fd5b506103cf6109fe565b6040516103dc9190611a70565b60405180910390f35b3480156103f157600080fd5b506103fa610a28565b60405161040791906117b7565b60405180910390f35b34801561041c57600080fd5b506104376004803603810190610432919061199c565b610aba565b005b34801561044557600080fd5b50610460600480360381019061045b9190611872565b610b9f565b60405161046d91906118cd565b60405180910390f35b34801561048257600080fd5b5061049d60048036038101906104989190611872565b610c89565b6040516104aa91906118cd565b60405180910390f35b3480156104bf57600080fd5b506104c8610cac565b6040516104d591906118f7565b60405180910390f35b3480156104ea57600080fd5b5061050560048036038101906105009190611a8b565b610cb2565b60405161051291906118f7565b60405180910390f35b34801561052757600080fd5b50610542600480360381019061053d9190611a34565b610d39565b005b34801561055057600080fd5b50610559610e31565b60405161056691906118f7565b60405180910390f35b60606003805461057e90611afa565b80601f01602080910402602001604051908101604052809291908181526020018280546105aa90611afa565b80156105f75780601f106105cc576101008083540402835291602001916105f7565b820191906000526020600020905b8154815290600101906020018083116105da57829003601f168201915b5050505050905090565b60008061060c610e37565b9050610619818585610e3f565b600191505092915050565b6000600254905090565b60075481565b60008061063f610e37565b905061064c85828561100a565b610657858585611096565b60019150509392505050565b60006012905090565b600080610677610e37565b905061070b818585600160008673ffffffffffffffffffffffffffffffffffffffff1673ffffffffffffffffffffffffffffffffffffffff16815260200190815260200160002060008973ffffffffffffffffffffffffffffffffffffffff1673ffffffffffffffffffffffffffffffffffffffff168152602001908152602001600020546107069190611b5b565b610e3f565b600191505092915050565b610727610721610e37565b82611317565b50565b8073ffffffffffffffffffffffffffffffffffffffff166108fc60019081150290604051600060405180830381858888f19350505050158015610771573d6000803e3d6000fd5b5050565b61077d610e37565b73ffffffffffffffffffffffffffffffffffffffff1661079b6109fe565b73ffffffffffffffffffffffffffffffffffffffff16146107f1576040517f08c379a00000000000000000000000000000000000000000000000000000000081526004016107e890611bfd565b60405180910390fd5b60008111610834576040517f08c379a000000000000000000000000000000000000000000000000000000000815260040161082b90611c69565b60405180910390fd5b61083e3382611317565b80600760008282546108509190611c89565b9250508190555050565b60008060008373ffffffffffffffffffffffffffffffffffffffff1673ffffffffffffffffffffffffffffffffffffffff168152602001908152602001600020549050919050565b6108aa610e37565b73ffffffffffffffffffffffffffffffffffffffff166108c86109fe565b73ffffffffffffffffffffffffffffffffffffffff161461091e576040517f08c379a000000000000000000000000000000000000000000000000000000000815260040161091590611bfd565b60405180910390fd5b61092860006114ee565b565b61093c82610936610e37565b8361100a565b6109468282611317565b5050565b6000808273ffffffffffffffffffffffffffffffffffffffff16600160405161097290611cee565b60006040518083038185875af1925050503d80600081146109af576040519150601f19603f3d011682016040523d82523d6000602084013e6109b4565b606091505b5091509150816109f9576040517f08c379a00000000000000000000000000000000000000000000000000000000081526004016109f090611d4f565b60405180910390fd5b505050565b6000600560009054906101000a900473ffffffffffffffffffffffffffffffffffffffff16905090565b606060048054610a3790611afa565b80601f0160208091040260200160405190810160405280929190818152602001828054610a6390611afa565b8015610ab05780601f10610a8557610100808354040283529160200191610ab0565b820191906000526020600020905b815481529060010190602001808311610a9357829003601f168201915b5050505050905090565b610ac2610e37565b73ffffffffffffffffffffffffffffffffffffffff16610ae06109fe565b73ffffffffffffffffffffffffffffffffffffffff1614610b36576040517f08c379a0000000000000000000000000000000000000000000000000000000008152600401610b2d90611bfd565b60405180910390fd5b60008111610b79576040517f08c379a0000000000000000000000000000000000000000000000000000000008152600401610b7090611c69565b60405180910390fd5b610b8333826115b4565b8060076000828254610b959190611b5b565b9250508190555050565b600080610baa610e37565b90506000600160008373ffffffffffffffffffffffffffffffffffffffff1673ffffffffffffffffffffffffffffffffffffffff16815260200190815260200160002060008673ffffffffffffffffffffffffffffffffffffffff1673ffffffffffffffffffffffffffffffffffffffff16815260200190815260200160002054905083811015610c70576040517f08c379a0000000000000000000000000000000000000000000000000000000008152600401610c6790611de1565b60405180910390fd5b610c7d8286868403610e3f565b60019250505092915050565b600080610c94610e37565b9050610ca1818585611096565b600191505092915050565b60065481565b6000600160008473ffffffffffffffffffffffffffffffffffffffff1673ffffffffffffffffffffffffffffffffffffffff16815260200190815260200160002060008373ffffffffffffffffffffffffffffffffffffffff1673ffffffffffffffffffffffffffffffffffffffff16815260200190815260200160002054905092915050565b610d41610e37565b73ffffffffffffffffffffffffffffffffffffffff16610d5f6109fe565b73ffffffffffffffffffffffffffffffffffffffff1614610db5576040517f08c379a0000000000000000000000000000000000000000000000000000000008152600401610dac90611bfd565b60405180910390fd5b600073ffffffffffffffffffffffffffffffffffffffff168173ffffffffffffffffffffffffffffffffffffffff161415610e25576040517f08c379a0000000000000000000000000000000000000000000000000000000008152600401610e1c90611e73565b60405180910390fd5b610e2e816114ee565b50565b60085481565b600033905090565b600073ffffffffffffffffffffffffffffffffffffffff168373ffffffffffffffffffffffffffffffffffffffff161415610eaf576040517f08c379a0000000000000000000000000000000000000000000000000000000008152600401610ea690611f05565b60405180910390fd5b600073ffffffffffffffffffffffffffffffffffffffff168273ffffffffffffffffffffffffffffffffffffffff161415610f1f576040517f08c379a0000000000000000000000000000000000000000000000000000000008152600401610f1690611f97565b60405180910390fd5b80600160008573ffffffffffffffffffffffffffffffffffffffff1673ffffffffffffffffffffffffffffffffffffffff16815260200190815260200160002060008473ffffffffffffffffffffffffffffffffffffffff1673ffffffffffffffffffffffffffffffffffffffff168152602001908152602001600020819055508173ffffffffffffffffffffffffffffffffffffffff168373ffffffffffffffffffffffffffffffffffffffff167f8c5be1e5ebec7d5bd14f71427d1e84f3dd0314c0f7b2291e5b200ac8c7c3b92583604051610ffd91906118f7565b60405180910390a3505050565b60006110168484610cb2565b90507fffffffffffffffffffffffffffffffffffffffffffffffffffffffffffffffff81146110905781811015611082576040517f08c379a000000000000000000000000000000000000000000000000000000000815260040161107990612003565b60405180910390fd5b61108f8484848403610e3f565b5b50505050565b600073ffffffffffffffffffffffffffffffffffffffff168373ffffffffffffffffffffffffffffffffffffffff161415611106576040517f08c379a00000000000000000000000000000000000000000000000000000000081526004016110fd90612095565b60405180910390fd5b600073ffffffffffffffffffffffffffffffffffffffff168273ffffffffffffffffffffffffffffffffffffffff161415611176576040517f08c379a000000000000000000000000000000000000000000000000000000000815260040161116d90612127565b60405180910390fd5b611181838383611714565b60008060008573ffffffffffffffffffffffffffffffffffffffff1673ffffffffffffffffffffffffffffffffffffffff16815260200190815260200160002054905081811015611207576040517f08c379a00000000000000000000000000000000000000000000000000000000081526004016111fe906121b9565b60405180910390fd5b8181036000808673ffffffffffffffffffffffffffffffffffffffff1673ffffffffffffffffffffffffffffffffffffffff16815260200190815260200160002081905550816000808573ffffffffffffffffffffffffffffffffffffffff1673ffffffffffffffffffffffffffffffffffffffff168152602001908152602001600020600082825461129a9190611b5b565b925050819055508273ffffffffffffffffffffffffffffffffffffffff168473ffffffffffffffffffffffffffffffffffffffff167fddf252ad1be2c89b69c2b068fc378daa952ba7f163c4a11628f55a4df523b3ef846040516112fe91906118f7565b60405180910390a3611311848484611719565b50505050565b600073ffffffffffffffffffffffffffffffffffffffff168273ffffffffffffffffffffffffffffffffffffffff161415611387576040517f08c379a000000000000000000000000000000000000000000000000000000000815260040161137e9061224b565b60405180910390fd5b61139382600083611714565b60008060008473ffffffffffffffffffffffffffffffffffffffff1673ffffffffffffffffffffffffffffffffffffffff16815260200190815260200160002054905081811015611419576040517f08c379a0000000000000000000000000000000000000000000000000000000008152600401611410906122dd565b60405180910390fd5b8181036000808573ffffffffffffffffffffffffffffffffffffffff1673ffffffffffffffffffffffffffffffffffffffff1681526020019081526020016000208190555081600260008282546114709190611c89565b92505081905550600073ffffffffffffffffffffffffffffffffffffffff168373ffffffffffffffffffffffffffffffffffffffff167fddf252ad1be2c89b69c2b068fc378daa952ba7f163c4a11628f55a4df523b3ef846040516114d591906118f7565b60405180910390a36114e983600084611719565b505050565b6000600560009054906101000a900473ffffffffffffffffffffffffffffffffffffffff16905081600560006101000a81548173ffffffffffffffffffffffffffffffffffffffff021916908373ffffffffffffffffffffffffffffffffffffffff1602179055508173ffffffffffffffffffffffffffffffffffffffff168173ffffffffffffffffffffffffffffffffffffffff167f8be0079c531659141344cd1fd0a4f28419497f9722a3daafe3b4186f6b6457e060405160405180910390a35050565b600073ffffffffffffffffffffffffffffffffffffffff168273ffffffffffffffffffffffffffffffffffffffff161415611624576040517f08c379a000000000000000000000000000000000000000000000000000000000815260040161161b90612349565b60405180910390fd5b61163060008383611714565b80600260008282546116429190611b5b565b92505081905550806000808473ffffffffffffffffffffffffffffffffffffffff1673ffffffffffffffffffffffffffffffffffffffff16815260200190815260200160002060008282546116979190611b5b565b925050819055508173ffffffffffffffffffffffffffffffffffffffff16600073ffffffffffffffffffffffffffffffffffffffff167fddf252ad1be2c89b69c2b068fc378daa952ba7f163c4a11628f55a4df523b3ef836040516116fc91906118f7565b60405180910390a361171060008383611719565b5050565b505050565b505050565b600081519050919050565b600082825260208201905092915050565b60005b8381101561175857808201518184015260208101905061173d565b83811115611767576000848401525b50505050565b6000601f19601f8301169050919050565b60006117898261171e565b6117938185611729565b93506117a381856020860161173a565b6117ac8161176d565b840191505092915050565b600060208201905081810360008301526117d1818461177e565b905092915050565b600080fd5b600073ffffffffffffffffffffffffffffffffffffffff82169050919050565b6000611809826117de565b9050919050565b611819816117fe565b811461182457600080fd5b50565b60008135905061183681611810565b92915050565b6000819050919050565b61184f8161183c565b811461185a57600080fd5b50565b60008135905061186c81611846565b92915050565b60008060408385031215611889576118886117d9565b5b600061189785828601611827565b92505060206118a88582860161185d565b9150509250929050565b60008115159050919050565b6118c7816118b2565b82525050565b60006020820190506118e260008301846118be565b92915050565b6118f18161183c565b82525050565b600060208201905061190c60008301846118e8565b92915050565b60008060006060848603121561192b5761192a6117d9565b5b600061193986828701611827565b935050602061194a86828701611827565b925050604061195b8682870161185d565b9150509250925092565b600060ff82169050919050565b61197b81611965565b82525050565b60006020820190506119966000830184611972565b92915050565b6000602082840312156119b2576119b16117d9565b5b60006119c08482850161185d565b91505092915050565b60006119d4826117de565b9050919050565b6119e4816119c9565b81146119ef57600080fd5b50565b600081359050611a01816119db565b92915050565b600060208284031215611a1d57611a1c6117d9565b5b6000611a2b848285016119f2565b91505092915050565b600060208284031215611a4a57611a496117d9565b5b6000611a5884828501611827565b91505092915050565b611a6a816117fe565b82525050565b6000602082019050611a856000830184611a61565b92915050565b60008060408385031215611aa257611aa16117d9565b5b6000611ab085828601611827565b9250506020611ac185828601611827565b9150509250929050565b7f4e487b7100000000000000000000000000000000000000000000000000000000600052602260045260246000fd5b60006002820490506001821680611b1257607f821691505b60208210811415611b2657611b25611acb565b5b50919050565b7f4e487b7100000000000000000000000000000000000000000000000000000000600052601160045260246000fd5b6000611b668261183c565b9150611b718361183c565b9250827fffffffffffffffffffffffffffffffffffffffffffffffffffffffffffffffff03821115611ba657611ba5611b2c565b5b828201905092915050565b7f4f776e61626c653a2063616c6c6572206973206e6f7420746865206f776e6572600082015250565b6000611be7602083611729565b9150611bf282611bb1565b602082019050919050565b60006020820190508181036000830152611c1681611bda565b9050919050565b7f416d6f756e74206d75737420626520686967686572207468616e207a65726f00600082015250565b6000611c53601f83611729565b9150611c5e82611c1d565b602082019050919050565b60006020820190508181036000830152611c8281611c46565b9050919050565b6000611c948261183c565b9150611c9f8361183c565b925082821015611cb257611cb1611b2c565b5b828203905092915050565b600081905092915050565b50565b6000611cd8600083611cbd565b9150611ce382611cc8565b600082019050919050565b6000611cf982611ccb565b9150819050919050565b7f43616c6c206661696c6564000000000000000000000000000000000000000000600082015250565b6000611d39600b83611729565b9150611d4482611d03565b602082019050919050565b60006020820190508181036000830152611d6881611d2c565b9050919050565b7f45524332303a2064656372656173656420616c6c6f77616e63652062656c6f7760008201527f207a65726f000000000000000000000000000000000000000000000000000000602082015250565b6000611dcb602583611729565b9150611dd682611d6f565b604082019050919050565b60006020820190508181036000830152611dfa81611dbe565b9050919050565b7f4f776e61626c653a206e6577206f776e657220697320746865207a65726f206160008201527f6464726573730000000000000000000000000000000000000000000000000000602082015250565b6000611e5d602683611729565b9150611e6882611e01565b604082019050919050565b60006020820190508181036000830152611e8c81611e50565b9050919050565b7f45524332303a20617070726f76652066726f6d20746865207a65726f2061646460008201527f7265737300000000000000000000000000000000000000000000000000000000602082015250565b6000611eef602483611729565b9150611efa82611e93565b604082019050919050565b60006020820190508181036000830152611f1e81611ee2565b9050919050565b7f45524332303a20617070726f766520746f20746865207a65726f20616464726560008201527f7373000000000000000000000000000000000000000000000000000000000000602082015250565b6000611f81602283611729565b9150611f8c82611f25565b604082019050919050565b60006020820190508181036000830152611fb081611f74565b9050919050565b7f45524332303a20696e73756666696369656e7420616c6c6f77616e6365000000600082015250565b6000611fed601d83611729565b9150611ff882611fb7565b602082019050919050565b6000602082019050818103600083015261201c81611fe0565b9050919050565b7f45524332303a207472616e736665722066726f6d20746865207a65726f20616460008201527f6472657373000000000000000000000000000000000000000000000000000000602082015250565b600061207f602583611729565b915061208a82612023565b604082019050919050565b600060208201905081810360008301526120ae81612072565b9050919050565b7f45524332303a207472616e7366657220746f20746865207a65726f206164647260008201527f6573730000000000000000000000000000000000000000000000000000000000602082015250565b6000612111602383611729565b915061211c826120b5565b604082019050919050565b6000602082019050818103600083015261214081612104565b9050919050565b7f45524332303a207472616e7366657220616d6f756e742065786365656473206260008201527f616c616e63650000000000000000000000000000000000000000000000000000602082015250565b60006121a3602683611729565b91506121ae82612147565b604082019050919050565b600060208201905081810360008301526121d281612196565b9050919050565b7f45524332303a206275726e2066726f6d20746865207a65726f2061646472657360008201527f7300000000000000000000000000000000000000000000000000000000000000602082015250565b6000612235602183611729565b9150612240826121d9565b604082019050919050565b6000602082019050818103600083015261226481612228565b9050919050565b7f45524332303a206275726e20616d6f756e7420657863656564732062616c616e60008201527f6365000000000000000000000000000000000000000000000000000000000000602082015250565b60006122c7602283611729565b91506122d28261226b565b604082019050919050565b600060208201905081810360008301526122f6816122ba565b9050919050565b7f45524332303a206d696e7420746f20746865207a65726f206164647265737300600082015250565b6000612333601f83611729565b915061233e826122fd565b602082019050919050565b6000602082019050818103600083015261236281612326565b905091905056fea264697066735822122059113ccc48c01e54e4a4e3a31f3f35945750a88ed42703d25f60a540509f54e364736f6c634300080b0033",
  "immutableReferences": {},
  "source": "pragma solidity 0.8.11;\r\n\r\nimport \"@openzeppelin/contracts/token/ERC20/ERC20.sol\";\r\nimport \"@openzeppelin/contracts/access/Ownable.sol\";\r\nimport \"@openzeppelin/contracts/token/ERC20/extensions/ERC20Burnable.sol\";\r\n\r\ncontract BasicToken is ERC20, ERC20Burnable, Ownable {\r\n    \r\n    uint256 public balance;\r\n    uint256 public initialtotalSupply;\r\n    uint256 public circulating;\r\n    \r\n    // event TransferReceived(address _from, uint _amount);\r\n    // event TransferSent(address _from, address _destAddr, uint _amount);\r\n\r\n    constructor() payable ERC20(\"BasicToken\", \"BST\"){\r\n        // balanceOf[msg.sender] = 1000000000000000000000000;\r\n        mint(1000000000000000000000000);\r\n        initialtotalSupply = 2000000000000000000000000;\r\n        circulating = 0;\r\n    }\r\n\r\n    receive() external payable {}\r\n\r\n    function sendViaTransfer ( address payable _to ) external payable {\r\n        _to.transfer(1);\r\n    }\r\n\r\n    function sendViaCall ( address payable _to ) external payable {\r\n       (bool success, bytes memory data) = _to.call{value:1}(\"\");\r\n       require(success, \"Call failed\");\r\n    }\r\n\r\n    // function changeCirculating (uint256 _amount) external {\r\n    //     circulating = _amount;\r\n    // }\r\n\r\n    // receive() external payable {\r\n    //     emit Log(\"receive\",msg.sender,msg.value,msg.data)\r\n    // }\r\n\r\n\r\n    // receive() payable external {\r\n    //     balance += msg.value;\r\n    //     emit TransferReceived(msg.sender, msg.value);\r\n    // }    \r\n\r\n    // function withdraw(uint amount, address payable destAddr) public onlyOwner{\r\n    //     require(amount <= balance, \"Insufficient funds\");\r\n        \r\n    //     destAddr.transfer(amount);\r\n    //     balance -= amount;\r\n    //     emit TransferSent(msg.sender, destAddr, amount);\r\n    // }\r\n    \r\n    // function transferERC20(IERC20 token, address to, uint256 amount) public {\r\n    //     require(msg.sender == owner, \"Only owner can withdraw funds\"); \r\n    //     uint256 erc20balance = token.balanceOf(address(this));\r\n    //     require(amount <= erc20balance, \"balance is low\");\r\n    //     token.transfer(to, amount);\r\n    //     emit TransferSent(msg.sender, to, amount);\r\n    // }    \r\n\r\n\r\n\r\n\r\n\r\n    function burnTokens(uint256 _amount) public onlyOwner {\r\n        require(_amount >0, \"Amount must be higher than zero\");\r\n        _burn(address(msg.sender),_amount);\r\n        initialtotalSupply -= _amount;\r\n    }\r\n\r\n\r\n    function mint(uint256 _amount) public onlyOwner {\r\n        require(_amount >0, \"Amount must be higher than zero\");\r\n        _mint(address(msg.sender), _amount);\r\n        initialtotalSupply += _amount;\r\n    }\r\n\r\n    \r\n    // function buy(uint256 _amount) external payable {\r\n    //     // e.g. the buyer wants 100 tokens, needs to send 500 wei\r\n    //     // require(msg.value >= _amount * cost, 'Need to send exact amount of wei');\r\n    //     transfer(msg.sender, _amount);\r\n    // }\r\n    \r\n    /* function sell(uint256 _amount) external {\r\n        // decrement the token balance of the seller\r\n        balances[msg.sender] -= _amount;\r\n        balances[address(this)] += _amount;\r\n        payable(msg.sender).transfer(_amount * cost);\r\n    } */\r\n\r\n}",
  "sourcePath": "C:\\Users\\ralph\\OneDrive\\Desktop\\sol\\starter_kit\\src\\contracts\\BasicToken.sol",
  "compiler": {
    "name": "solc",
    "version": "0.8.11+commit.d7f03943.Emscripten.clang"
  },
  "schemaVersion": "3.4.5",
  "updatedAt": "2022-03-06T17:11:14.971Z",
  "networkType": "ethereum",
  "devdoc": {
    "kind": "dev",
    "methods": {
      "allowance(address,address)": {
        "details": "See {IERC20-allowance}."
      },
      "approve(address,uint256)": {
        "details": "See {IERC20-approve}. NOTE: If `amount` is the maximum `uint256`, the allowance is not updated on `transferFrom`. This is semantically equivalent to an infinite approval. Requirements: - `spender` cannot be the zero address."
      },
      "balanceOf(address)": {
        "details": "See {IERC20-balanceOf}."
      },
      "burn(uint256)": {
        "details": "Destroys `amount` tokens from the caller. See {ERC20-_burn}."
      },
      "burnFrom(address,uint256)": {
        "details": "Destroys `amount` tokens from `account`, deducting from the caller's allowance. See {ERC20-_burn} and {ERC20-allowance}. Requirements: - the caller must have allowance for ``accounts``'s tokens of at least `amount`."
      },
      "decimals()": {
        "details": "Returns the number of decimals used to get its user representation. For example, if `decimals` equals `2`, a balance of `505` tokens should be displayed to a user as `5.05` (`505 / 10 ** 2`). Tokens usually opt for a value of 18, imitating the relationship between Ether and Wei. This is the value {ERC20} uses, unless this function is overridden; NOTE: This information is only used for _display_ purposes: it in no way affects any of the arithmetic of the contract, including {IERC20-balanceOf} and {IERC20-transfer}."
      },
      "decreaseAllowance(address,uint256)": {
        "details": "Atomically decreases the allowance granted to `spender` by the caller. This is an alternative to {approve} that can be used as a mitigation for problems described in {IERC20-approve}. Emits an {Approval} event indicating the updated allowance. Requirements: - `spender` cannot be the zero address. - `spender` must have allowance for the caller of at least `subtractedValue`."
      },
      "increaseAllowance(address,uint256)": {
        "details": "Atomically increases the allowance granted to `spender` by the caller. This is an alternative to {approve} that can be used as a mitigation for problems described in {IERC20-approve}. Emits an {Approval} event indicating the updated allowance. Requirements: - `spender` cannot be the zero address."
      },
      "name()": {
        "details": "Returns the name of the token."
      },
      "owner()": {
        "details": "Returns the address of the current owner."
      },
      "renounceOwnership()": {
        "details": "Leaves the contract without owner. It will not be possible to call `onlyOwner` functions anymore. Can only be called by the current owner. NOTE: Renouncing ownership will leave the contract without an owner, thereby removing any functionality that is only available to the owner."
      },
      "symbol()": {
        "details": "Returns the symbol of the token, usually a shorter version of the name."
      },
      "totalSupply()": {
        "details": "See {IERC20-totalSupply}."
      },
      "transfer(address,uint256)": {
        "details": "See {IERC20-transfer}. Requirements: - `to` cannot be the zero address. - the caller must have a balance of at least `amount`."
      },
      "transferFrom(address,address,uint256)": {
        "details": "See {IERC20-transferFrom}. Emits an {Approval} event indicating the updated allowance. This is not required by the EIP. See the note at the beginning of {ERC20}. NOTE: Does not update the allowance if the current allowance is the maximum `uint256`. Requirements: - `from` and `to` cannot be the zero address. - `from` must have a balance of at least `amount`. - the caller must have allowance for ``from``'s tokens of at least `amount`."
      },
      "transferOwnership(address)": {
        "details": "Transfers ownership of the contract to a new account (`newOwner`). Can only be called by the current owner."
      }
    },
    "version": 1
  },
  "userdoc": {
    "kind": "user",
    "methods": {},
    "version": 1
  }
}