{
  "contractName": "BasicToken",
  "abi": [
    {
      "inputs": [],
      "stateMutability": "nonpayable",
      "type": "constructor"
    },
    {
      "anonymous": false,
      "inputs": [
        {
          "indexed": true,
          "internalType": "address",
          "name": "owner",
          "type": "address"
        },
        {
          "indexed": true,
          "internalType": "address",
          "name": "spender",
          "type": "address"
        },
        {
          "indexed": false,
          "internalType": "uint256",
          "name": "value",
          "type": "uint256"
        }
      ],
      "name": "Approval",
      "type": "event"
    },
    {
      "anonymous": false,
      "inputs": [
        {
          "indexed": true,
          "internalType": "address",
          "name": "previousOwner",
          "type": "address"
        },
        {
          "indexed": true,
          "internalType": "address",
          "name": "newOwner",
          "type": "address"
        }
      ],
      "name": "OwnershipTransferred",
      "type": "event"
    },
    {
      "anonymous": false,
      "inputs": [
        {
          "indexed": true,
          "internalType": "address",
          "name": "from",
          "type": "address"
        },
        {
          "indexed": true,
          "internalType": "address",
          "name": "to",
          "type": "address"
        },
        {
          "indexed": false,
          "internalType": "uint256",
          "name": "value",
          "type": "uint256"
        }
      ],
      "name": "Transfer",
      "type": "event"
    },
    {
      "inputs": [
        {
          "internalType": "address",
          "name": "owner",
          "type": "address"
        },
        {
          "internalType": "address",
          "name": "spender",
          "type": "address"
        }
      ],
      "name": "allowance",
      "outputs": [
        {
          "internalType": "uint256",
          "name": "",
          "type": "uint256"
        }
      ],
      "stateMutability": "view",
      "type": "function",
      "constant": true
    },
    {
      "inputs": [
        {
          "internalType": "address",
          "name": "spender",
          "type": "address"
        },
        {
          "internalType": "uint256",
          "name": "amount",
          "type": "uint256"
        }
      ],
      "name": "approve",
      "outputs": [
        {
          "internalType": "bool",
          "name": "",
          "type": "bool"
        }
      ],
      "stateMutability": "nonpayable",
      "type": "function"
    },
    {
      "inputs": [
        {
          "internalType": "address",
          "name": "account",
          "type": "address"
        }
      ],
      "name": "balanceOf",
      "outputs": [
        {
          "internalType": "uint256",
          "name": "",
          "type": "uint256"
        }
      ],
      "stateMutability": "view",
      "type": "function",
      "constant": true
    },
    {
      "inputs": [
        {
          "internalType": "uint256",
          "name": "amount",
          "type": "uint256"
        }
      ],
      "name": "burn",
      "outputs": [],
      "stateMutability": "nonpayable",
      "type": "function"
    },
    {
      "inputs": [
        {
          "internalType": "address",
          "name": "account",
          "type": "address"
        },
        {
          "internalType": "uint256",
          "name": "amount",
          "type": "uint256"
        }
      ],
      "name": "burnFrom",
      "outputs": [],
      "stateMutability": "nonpayable",
      "type": "function"
    },
    {
      "inputs": [],
      "name": "cost",
      "outputs": [
        {
          "internalType": "uint256",
          "name": "",
          "type": "uint256"
        }
      ],
      "stateMutability": "view",
      "type": "function",
      "constant": true
    },
    {
      "inputs": [],
      "name": "decimals",
      "outputs": [
        {
          "internalType": "uint8",
          "name": "",
          "type": "uint8"
        }
      ],
      "stateMutability": "view",
      "type": "function",
      "constant": true
    },
    {
      "inputs": [
        {
          "internalType": "address",
          "name": "spender",
          "type": "address"
        },
        {
          "internalType": "uint256",
          "name": "subtractedValue",
          "type": "uint256"
        }
      ],
      "name": "decreaseAllowance",
      "outputs": [
        {
          "internalType": "bool",
          "name": "",
          "type": "bool"
        }
      ],
      "stateMutability": "nonpayable",
      "type": "function"
    },
    {
      "inputs": [
        {
          "internalType": "address",
          "name": "spender",
          "type": "address"
        },
        {
          "internalType": "uint256",
          "name": "addedValue",
          "type": "uint256"
        }
      ],
      "name": "increaseAllowance",
      "outputs": [
        {
          "internalType": "bool",
          "name": "",
          "type": "bool"
        }
      ],
      "stateMutability": "nonpayable",
      "type": "function"
    },
    {
      "inputs": [],
      "name": "name",
      "outputs": [
        {
          "internalType": "string",
          "name": "",
          "type": "string"
        }
      ],
      "stateMutability": "view",
      "type": "function",
      "constant": true
    },
    {
      "inputs": [],
      "name": "owner",
      "outputs": [
        {
          "internalType": "address",
          "name": "",
          "type": "address"
        }
      ],
      "stateMutability": "view",
      "type": "function",
      "constant": true
    },
    {
      "inputs": [],
      "name": "renounceOwnership",
      "outputs": [],
      "stateMutability": "nonpayable",
      "type": "function"
    },
    {
      "inputs": [],
      "name": "symbol",
      "outputs": [
        {
          "internalType": "string",
          "name": "",
          "type": "string"
        }
      ],
      "stateMutability": "view",
      "type": "function",
      "constant": true
    },
    {
      "inputs": [],
      "name": "totalSupply",
      "outputs": [
        {
          "internalType": "uint256",
          "name": "",
          "type": "uint256"
        }
      ],
      "stateMutability": "view",
      "type": "function",
      "constant": true
    },
    {
      "inputs": [
        {
          "internalType": "address",
          "name": "to",
          "type": "address"
        },
        {
          "internalType": "uint256",
          "name": "amount",
          "type": "uint256"
        }
      ],
      "name": "transfer",
      "outputs": [
        {
          "internalType": "bool",
          "name": "",
          "type": "bool"
        }
      ],
      "stateMutability": "nonpayable",
      "type": "function"
    },
    {
      "inputs": [
        {
          "internalType": "address",
          "name": "from",
          "type": "address"
        },
        {
          "internalType": "address",
          "name": "to",
          "type": "address"
        },
        {
          "internalType": "uint256",
          "name": "amount",
          "type": "uint256"
        }
      ],
      "name": "transferFrom",
      "outputs": [
        {
          "internalType": "bool",
          "name": "",
          "type": "bool"
        }
      ],
      "stateMutability": "nonpayable",
      "type": "function"
    },
    {
      "inputs": [
        {
          "internalType": "address",
          "name": "newOwner",
          "type": "address"
        }
      ],
      "name": "transferOwnership",
      "outputs": [],
      "stateMutability": "nonpayable",
      "type": "function"
    },
    {
      "inputs": [
        {
          "internalType": "uint256",
          "name": "_price",
          "type": "uint256"
        }
      ],
      "name": "changePriceOfToken",
      "outputs": [],
      "stateMutability": "nonpayable",
      "type": "function"
    },
    {
      "inputs": [
        {
          "internalType": "uint256",
          "name": "_amount",
          "type": "uint256"
        }
      ],
      "name": "burnTokens",
      "outputs": [],
      "stateMutability": "nonpayable",
      "type": "function"
    },
    {
      "inputs": [
        {
          "internalType": "uint256",
          "name": "_amount",
          "type": "uint256"
        }
      ],
      "name": "mint",
      "outputs": [],
      "stateMutability": "nonpayable",
      "type": "function"
    }
  ],
  "bytecode": "0x60806040523480156200001157600080fd5b506040518060400160405280600a81526020017f4261736963546f6b656e000000000000000000000000000000000000000000008152506040518060400160405280600381526020017f4253540000000000000000000000000000000000000000000000000000000000815250816003908051906020019062000096929190620001b5565b508060049080519060200190620000af929190620001b5565b505050620000d2620000c6620000e760201b60201c565b620000ef60201b60201c565b67016345785d8a0000600681905550620002ca565b600033905090565b6000600560009054906101000a900473ffffffffffffffffffffffffffffffffffffffff16905081600560006101000a81548173ffffffffffffffffffffffffffffffffffffffff021916908373ffffffffffffffffffffffffffffffffffffffff1602179055508173ffffffffffffffffffffffffffffffffffffffff168173ffffffffffffffffffffffffffffffffffffffff167f8be0079c531659141344cd1fd0a4f28419497f9722a3daafe3b4186f6b6457e060405160405180910390a35050565b828054620001c39062000294565b90600052602060002090601f016020900481019282620001e7576000855562000233565b82601f106200020257805160ff191683800117855562000233565b8280016001018555821562000233579182015b828111156200023257825182559160200191906001019062000215565b5b50905062000242919062000246565b5090565b5b808211156200026157600081600090555060010162000247565b5090565b7f4e487b7100000000000000000000000000000000000000000000000000000000600052602260045260246000fd5b60006002820490506001821680620002ad57607f821691505b60208210811415620002c457620002c362000265565b5b50919050565b6120f880620002da6000396000f3fe608060405234801561001057600080fd5b506004361061012c5760003560e01c8063715018a6116100ad578063a457c2d711610071578063a457c2d71461031f578063a9059cbb1461034f578063d27ae8de1461037f578063dd62ed3e1461039b578063f2fde38b146103cb5761012c565b8063715018a6146102a157806379cc6790146102ab5780638da5cb5b146102c757806395d89b41146102e5578063a0712d68146103035761012c565b8063313ce567116100f4578063313ce567146101eb578063395093511461020957806342966c68146102395780636d1b229d1461025557806370a08231146102715761012c565b806306fdde0314610131578063095ea7b31461014f57806313faede61461017f57806318160ddd1461019d57806323b872dd146101bb575b600080fd5b6101396103e7565b60405161014691906115c1565b60405180910390f35b6101696004803603810190610164919061167c565b610479565b60405161017691906116d7565b60405180910390f35b61018761049c565b6040516101949190611701565b60405180910390f35b6101a56104a2565b6040516101b29190611701565b60405180910390f35b6101d560048036038101906101d0919061171c565b6104ac565b6040516101e291906116d7565b60405180910390f35b6101f36104db565b604051610200919061178b565b60405180910390f35b610223600480360381019061021e919061167c565b6104e4565b60405161023091906116d7565b60405180910390f35b610253600480360381019061024e91906117a6565b61058e565b005b61026f600480360381019061026a91906117a6565b6105a2565b005b61028b600480360381019061028691906117d3565b61066e565b6040516102989190611701565b60405180910390f35b6102a96106b6565b005b6102c560048036038101906102c0919061167c565b61073e565b005b6102cf61075e565b6040516102dc919061180f565b60405180910390f35b6102ed610788565b6040516102fa91906115c1565b60405180910390f35b61031d600480360381019061031891906117a6565b61081a565b005b6103396004803603810190610334919061167c565b6108e6565b60405161034691906116d7565b60405180910390f35b6103696004803603810190610364919061167c565b6109d0565b60405161037691906116d7565b60405180910390f35b610399600480360381019061039491906117a6565b6109f3565b005b6103b560048036038101906103b0919061182a565b610ac2565b6040516103c29190611701565b60405180910390f35b6103e560048036038101906103e091906117d3565b610b49565b005b6060600380546103f690611899565b80601f016020809104026020016040519081016040528092919081815260200182805461042290611899565b801561046f5780601f106104445761010080835404028352916020019161046f565b820191906000526020600020905b81548152906001019060200180831161045257829003601f168201915b5050505050905090565b600080610484610c41565b9050610491818585610c49565b600191505092915050565b60065481565b6000600254905090565b6000806104b7610c41565b90506104c4858285610e14565b6104cf858585610ea0565b60019150509392505050565b60006012905090565b6000806104ef610c41565b9050610583818585600160008673ffffffffffffffffffffffffffffffffffffffff1673ffffffffffffffffffffffffffffffffffffffff16815260200190815260200160002060008973ffffffffffffffffffffffffffffffffffffffff1673ffffffffffffffffffffffffffffffffffffffff1681526020019081526020016000205461057e91906118fa565b610c49565b600191505092915050565b61059f610599610c41565b82611121565b50565b6105aa610c41565b73ffffffffffffffffffffffffffffffffffffffff166105c861075e565b73ffffffffffffffffffffffffffffffffffffffff161461061e576040517f08c379a00000000000000000000000000000000000000000000000000000000081526004016106159061199c565b60405180910390fd5b60008111610661576040517f08c379a000000000000000000000000000000000000000000000000000000000815260040161065890611a08565b60405180910390fd5b61066b3382611121565b50565b60008060008373ffffffffffffffffffffffffffffffffffffffff1673ffffffffffffffffffffffffffffffffffffffff168152602001908152602001600020549050919050565b6106be610c41565b73ffffffffffffffffffffffffffffffffffffffff166106dc61075e565b73ffffffffffffffffffffffffffffffffffffffff1614610732576040517f08c379a00000000000000000000000000000000000000000000000000000000081526004016107299061199c565b60405180910390fd5b61073c60006112f8565b565b6107508261074a610c41565b83610e14565b61075a8282611121565b5050565b6000600560009054906101000a900473ffffffffffffffffffffffffffffffffffffffff16905090565b60606004805461079790611899565b80601f01602080910402602001604051908101604052809291908181526020018280546107c390611899565b80156108105780601f106107e557610100808354040283529160200191610810565b820191906000526020600020905b8154815290600101906020018083116107f357829003601f168201915b5050505050905090565b610822610c41565b73ffffffffffffffffffffffffffffffffffffffff1661084061075e565b73ffffffffffffffffffffffffffffffffffffffff1614610896576040517f08c379a000000000000000000000000000000000000000000000000000000000815260040161088d9061199c565b60405180910390fd5b600081116108d9576040517f08c379a00000000000000000000000000000000000000000000000000000000081526004016108d090611a08565b60405180910390fd5b6108e333826113be565b50565b6000806108f1610c41565b90506000600160008373ffffffffffffffffffffffffffffffffffffffff1673ffffffffffffffffffffffffffffffffffffffff16815260200190815260200160002060008673ffffffffffffffffffffffffffffffffffffffff1673ffffffffffffffffffffffffffffffffffffffff168152602001908152602001600020549050838110156109b7576040517f08c379a00000000000000000000000000000000000000000000000000000000081526004016109ae90611a9a565b60405180910390fd5b6109c48286868403610c49565b60019250505092915050565b6000806109db610c41565b90506109e8818585610ea0565b600191505092915050565b6109fb610c41565b73ffffffffffffffffffffffffffffffffffffffff16610a1961075e565b73ffffffffffffffffffffffffffffffffffffffff1614610a6f576040517f08c379a0000000000000000000000000000000000000000000000000000000008152600401610a669061199c565b60405180910390fd5b66b1a2bc2ec500008111610ab8576040517f08c379a0000000000000000000000000000000000000000000000000000000008152600401610aaf90611b06565b60405180910390fd5b8060068190555050565b6000600160008473ffffffffffffffffffffffffffffffffffffffff1673ffffffffffffffffffffffffffffffffffffffff16815260200190815260200160002060008373ffffffffffffffffffffffffffffffffffffffff1673ffffffffffffffffffffffffffffffffffffffff16815260200190815260200160002054905092915050565b610b51610c41565b73ffffffffffffffffffffffffffffffffffffffff16610b6f61075e565b73ffffffffffffffffffffffffffffffffffffffff1614610bc5576040517f08c379a0000000000000000000000000000000000000000000000000000000008152600401610bbc9061199c565b60405180910390fd5b600073ffffffffffffffffffffffffffffffffffffffff168173ffffffffffffffffffffffffffffffffffffffff161415610c35576040517f08c379a0000000000000000000000000000000000000000000000000000000008152600401610c2c90611b98565b60405180910390fd5b610c3e816112f8565b50565b600033905090565b600073ffffffffffffffffffffffffffffffffffffffff168373ffffffffffffffffffffffffffffffffffffffff161415610cb9576040517f08c379a0000000000000000000000000000000000000000000000000000000008152600401610cb090611c2a565b60405180910390fd5b600073ffffffffffffffffffffffffffffffffffffffff168273ffffffffffffffffffffffffffffffffffffffff161415610d29576040517f08c379a0000000000000000000000000000000000000000000000000000000008152600401610d2090611cbc565b60405180910390fd5b80600160008573ffffffffffffffffffffffffffffffffffffffff1673ffffffffffffffffffffffffffffffffffffffff16815260200190815260200160002060008473ffffffffffffffffffffffffffffffffffffffff1673ffffffffffffffffffffffffffffffffffffffff168152602001908152602001600020819055508173ffffffffffffffffffffffffffffffffffffffff168373ffffffffffffffffffffffffffffffffffffffff167f8c5be1e5ebec7d5bd14f71427d1e84f3dd0314c0f7b2291e5b200ac8c7c3b92583604051610e079190611701565b60405180910390a3505050565b6000610e208484610ac2565b90507fffffffffffffffffffffffffffffffffffffffffffffffffffffffffffffffff8114610e9a5781811015610e8c576040517f08c379a0000000000000000000000000000000000000000000000000000000008152600401610e8390611d28565b60405180910390fd5b610e998484848403610c49565b5b50505050565b600073ffffffffffffffffffffffffffffffffffffffff168373ffffffffffffffffffffffffffffffffffffffff161415610f10576040517f08c379a0000000000000000000000000000000000000000000000000000000008152600401610f0790611dba565b60405180910390fd5b600073ffffffffffffffffffffffffffffffffffffffff168273ffffffffffffffffffffffffffffffffffffffff161415610f80576040517f08c379a0000000000000000000000000000000000000000000000000000000008152600401610f7790611e4c565b60405180910390fd5b610f8b83838361151e565b60008060008573ffffffffffffffffffffffffffffffffffffffff1673ffffffffffffffffffffffffffffffffffffffff16815260200190815260200160002054905081811015611011576040517f08c379a000000000000000000000000000000000000000000000000000000000815260040161100890611ede565b60405180910390fd5b8181036000808673ffffffffffffffffffffffffffffffffffffffff1673ffffffffffffffffffffffffffffffffffffffff16815260200190815260200160002081905550816000808573ffffffffffffffffffffffffffffffffffffffff1673ffffffffffffffffffffffffffffffffffffffff16815260200190815260200160002060008282546110a491906118fa565b925050819055508273ffffffffffffffffffffffffffffffffffffffff168473ffffffffffffffffffffffffffffffffffffffff167fddf252ad1be2c89b69c2b068fc378daa952ba7f163c4a11628f55a4df523b3ef846040516111089190611701565b60405180910390a361111b848484611523565b50505050565b600073ffffffffffffffffffffffffffffffffffffffff168273ffffffffffffffffffffffffffffffffffffffff161415611191576040517f08c379a000000000000000000000000000000000000000000000000000000000815260040161118890611f70565b60405180910390fd5b61119d8260008361151e565b60008060008473ffffffffffffffffffffffffffffffffffffffff1673ffffffffffffffffffffffffffffffffffffffff16815260200190815260200160002054905081811015611223576040517f08c379a000000000000000000000000000000000000000000000000000000000815260040161121a90612002565b60405180910390fd5b8181036000808573ffffffffffffffffffffffffffffffffffffffff1673ffffffffffffffffffffffffffffffffffffffff16815260200190815260200160002081905550816002600082825461127a9190612022565b92505081905550600073ffffffffffffffffffffffffffffffffffffffff168373ffffffffffffffffffffffffffffffffffffffff167fddf252ad1be2c89b69c2b068fc378daa952ba7f163c4a11628f55a4df523b3ef846040516112df9190611701565b60405180910390a36112f383600084611523565b505050565b6000600560009054906101000a900473ffffffffffffffffffffffffffffffffffffffff16905081600560006101000a81548173ffffffffffffffffffffffffffffffffffffffff021916908373ffffffffffffffffffffffffffffffffffffffff1602179055508173ffffffffffffffffffffffffffffffffffffffff168173ffffffffffffffffffffffffffffffffffffffff167f8be0079c531659141344cd1fd0a4f28419497f9722a3daafe3b4186f6b6457e060405160405180910390a35050565b600073ffffffffffffffffffffffffffffffffffffffff168273ffffffffffffffffffffffffffffffffffffffff16141561142e576040517f08c379a0000000000000000000000000000000000000000000000000000000008152600401611425906120a2565b60405180910390fd5b61143a6000838361151e565b806002600082825461144c91906118fa565b92505081905550806000808473ffffffffffffffffffffffffffffffffffffffff1673ffffffffffffffffffffffffffffffffffffffff16815260200190815260200160002060008282546114a191906118fa565b925050819055508173ffffffffffffffffffffffffffffffffffffffff16600073ffffffffffffffffffffffffffffffffffffffff167fddf252ad1be2c89b69c2b068fc378daa952ba7f163c4a11628f55a4df523b3ef836040516115069190611701565b60405180910390a361151a60008383611523565b5050565b505050565b505050565b600081519050919050565b600082825260208201905092915050565b60005b83811015611562578082015181840152602081019050611547565b83811115611571576000848401525b50505050565b6000601f19601f8301169050919050565b600061159382611528565b61159d8185611533565b93506115ad818560208601611544565b6115b681611577565b840191505092915050565b600060208201905081810360008301526115db8184611588565b905092915050565b600080fd5b600073ffffffffffffffffffffffffffffffffffffffff82169050919050565b6000611613826115e8565b9050919050565b61162381611608565b811461162e57600080fd5b50565b6000813590506116408161161a565b92915050565b6000819050919050565b61165981611646565b811461166457600080fd5b50565b60008135905061167681611650565b92915050565b60008060408385031215611693576116926115e3565b5b60006116a185828601611631565b92505060206116b285828601611667565b9150509250929050565b60008115159050919050565b6116d1816116bc565b82525050565b60006020820190506116ec60008301846116c8565b92915050565b6116fb81611646565b82525050565b600060208201905061171660008301846116f2565b92915050565b600080600060608486031215611735576117346115e3565b5b600061174386828701611631565b935050602061175486828701611631565b925050604061176586828701611667565b9150509250925092565b600060ff82169050919050565b6117858161176f565b82525050565b60006020820190506117a0600083018461177c565b92915050565b6000602082840312156117bc576117bb6115e3565b5b60006117ca84828501611667565b91505092915050565b6000602082840312156117e9576117e86115e3565b5b60006117f784828501611631565b91505092915050565b61180981611608565b82525050565b60006020820190506118246000830184611800565b92915050565b60008060408385031215611841576118406115e3565b5b600061184f85828601611631565b925050602061186085828601611631565b9150509250929050565b7f4e487b7100000000000000000000000000000000000000000000000000000000600052602260045260246000fd5b600060028204905060018216806118b157607f821691505b602082108114156118c5576118c461186a565b5b50919050565b7f4e487b7100000000000000000000000000000000000000000000000000000000600052601160045260246000fd5b600061190582611646565b915061191083611646565b9250827fffffffffffffffffffffffffffffffffffffffffffffffffffffffffffffffff03821115611945576119446118cb565b5b828201905092915050565b7f4f776e61626c653a2063616c6c6572206973206e6f7420746865206f776e6572600082015250565b6000611986602083611533565b915061199182611950565b602082019050919050565b600060208201905081810360008301526119b581611979565b9050919050565b7f416d6f756e74206d75737420626520686967686572207468616e207a65726f00600082015250565b60006119f2601f83611533565b91506119fd826119bc565b602082019050919050565b60006020820190508181036000830152611a21816119e5565b9050919050565b7f45524332303a2064656372656173656420616c6c6f77616e63652062656c6f7760008201527f207a65726f000000000000000000000000000000000000000000000000000000602082015250565b6000611a84602583611533565b9150611a8f82611a28565b604082019050919050565b60006020820190508181036000830152611ab381611a77565b9050919050565b7f5072696365206d75737420626520686967686572207468616e20302e30350000600082015250565b6000611af0601e83611533565b9150611afb82611aba565b602082019050919050565b60006020820190508181036000830152611b1f81611ae3565b9050919050565b7f4f776e61626c653a206e6577206f776e657220697320746865207a65726f206160008201527f6464726573730000000000000000000000000000000000000000000000000000602082015250565b6000611b82602683611533565b9150611b8d82611b26565b604082019050919050565b60006020820190508181036000830152611bb181611b75565b9050919050565b7f45524332303a20617070726f76652066726f6d20746865207a65726f2061646460008201527f7265737300000000000000000000000000000000000000000000000000000000602082015250565b6000611c14602483611533565b9150611c1f82611bb8565b604082019050919050565b60006020820190508181036000830152611c4381611c07565b9050919050565b7f45524332303a20617070726f766520746f20746865207a65726f20616464726560008201527f7373000000000000000000000000000000000000000000000000000000000000602082015250565b6000611ca6602283611533565b9150611cb182611c4a565b604082019050919050565b60006020820190508181036000830152611cd581611c99565b9050919050565b7f45524332303a20696e73756666696369656e7420616c6c6f77616e6365000000600082015250565b6000611d12601d83611533565b9150611d1d82611cdc565b602082019050919050565b60006020820190508181036000830152611d4181611d05565b9050919050565b7f45524332303a207472616e736665722066726f6d20746865207a65726f20616460008201527f6472657373000000000000000000000000000000000000000000000000000000602082015250565b6000611da4602583611533565b9150611daf82611d48565b604082019050919050565b60006020820190508181036000830152611dd381611d97565b9050919050565b7f45524332303a207472616e7366657220746f20746865207a65726f206164647260008201527f6573730000000000000000000000000000000000000000000000000000000000602082015250565b6000611e36602383611533565b9150611e4182611dda565b604082019050919050565b60006020820190508181036000830152611e6581611e29565b9050919050565b7f45524332303a207472616e7366657220616d6f756e742065786365656473206260008201527f616c616e63650000000000000000000000000000000000000000000000000000602082015250565b6000611ec8602683611533565b9150611ed382611e6c565b604082019050919050565b60006020820190508181036000830152611ef781611ebb565b9050919050565b7f45524332303a206275726e2066726f6d20746865207a65726f2061646472657360008201527f7300000000000000000000000000000000000000000000000000000000000000602082015250565b6000611f5a602183611533565b9150611f6582611efe565b604082019050919050565b60006020820190508181036000830152611f8981611f4d565b9050919050565b7f45524332303a206275726e20616d6f756e7420657863656564732062616c616e60008201527f6365000000000000000000000000000000000000000000000000000000000000602082015250565b6000611fec602283611533565b9150611ff782611f90565b604082019050919050565b6000602082019050818103600083015261201b81611fdf565b9050919050565b600061202d82611646565b915061203883611646565b92508282101561204b5761204a6118cb565b5b828203905092915050565b7f45524332303a206d696e7420746f20746865207a65726f206164647265737300600082015250565b600061208c601f83611533565b915061209782612056565b602082019050919050565b600060208201905081810360008301526120bb8161207f565b905091905056fea2646970667358221220b869c1beadcaa75240c39289dca05ed79b423fc261a0bae06288e52c6783f69564736f6c634300080b0033",
  "immutableReferences": {},
  "source": "pragma solidity 0.8.11;\r\n\r\nimport \"@openzeppelin/contracts/token/ERC20/ERC20.sol\";\r\nimport \"@openzeppelin/contracts/access/Ownable.sol\";\r\nimport \"@openzeppelin/contracts/token/ERC20/extensions/ERC20Burnable.sol\";\r\n\r\ncontract BasicToken is ERC20, ERC20Burnable, Ownable {\r\n    \r\n    uint256 public cost;\r\n\r\n    constructor() ERC20(\"BasicToken\", \"BST\"){\r\n        cost = 1*10**17;\r\n    }\r\n\r\n    function changePriceOfToken(uint256 _price) public onlyOwner{\r\n        require(_price > 5*10**16, \"Price must be higher than 0.05\");\r\n        cost = _price;\r\n    }\r\n\r\n    function burnTokens(uint256 _amount) public onlyOwner {\r\n        require(_amount >0, \"Amount must be higher than zero\");\r\n        _burn(address(msg.sender),_amount);\r\n    }\r\n\r\n\r\n    function mint(uint256 _amount) public onlyOwner {\r\n        require(_amount >0, \"Amount must be higher than zero\");\r\n        _mint(address(msg.sender), _amount);\r\n    }\r\n\r\n    \r\n   /*  function buy(uint256 _amount) external payable {\r\n        // e.g. the buyer wants 100 tokens, needs to send 500 wei\r\n        require(msg.value == _amount * cost, 'Need to send exact amount of wei');\r\n        transfer(msg.sender, _amount);\r\n    }\r\n    \r\n    function sell(uint256 _amount) external {\r\n        // decrement the token balance of the seller\r\n        balances[msg.sender] -= _amount;\r\n        balances[address(this)] += _amount;\r\n        payable(msg.sender).transfer(_amount * cost);\r\n    } */\r\n\r\n}",
  "sourcePath": "C:\\Users\\ralph\\OneDrive\\Desktop\\sol\\starter_kit\\src\\contracts\\BasicToken.sol",
  "compiler": {
    "name": "solc",
    "version": "0.8.11+commit.d7f03943.Emscripten.clang"
  },
  "schemaVersion": "3.4.5",
  "updatedAt": "2022-03-01T14:08:45.349Z",
  "networkType": "ethereum",
  "devdoc": {
    "kind": "dev",
    "methods": {
      "allowance(address,address)": {
        "details": "See {IERC20-allowance}."
      },
      "approve(address,uint256)": {
        "details": "See {IERC20-approve}. NOTE: If `amount` is the maximum `uint256`, the allowance is not updated on `transferFrom`. This is semantically equivalent to an infinite approval. Requirements: - `spender` cannot be the zero address."
      },
      "balanceOf(address)": {
        "details": "See {IERC20-balanceOf}."
      },
      "burn(uint256)": {
        "details": "Destroys `amount` tokens from the caller. See {ERC20-_burn}."
      },
      "burnFrom(address,uint256)": {
        "details": "Destroys `amount` tokens from `account`, deducting from the caller's allowance. See {ERC20-_burn} and {ERC20-allowance}. Requirements: - the caller must have allowance for ``accounts``'s tokens of at least `amount`."
      },
      "decimals()": {
        "details": "Returns the number of decimals used to get its user representation. For example, if `decimals` equals `2`, a balance of `505` tokens should be displayed to a user as `5.05` (`505 / 10 ** 2`). Tokens usually opt for a value of 18, imitating the relationship between Ether and Wei. This is the value {ERC20} uses, unless this function is overridden; NOTE: This information is only used for _display_ purposes: it in no way affects any of the arithmetic of the contract, including {IERC20-balanceOf} and {IERC20-transfer}."
      },
      "decreaseAllowance(address,uint256)": {
        "details": "Atomically decreases the allowance granted to `spender` by the caller. This is an alternative to {approve} that can be used as a mitigation for problems described in {IERC20-approve}. Emits an {Approval} event indicating the updated allowance. Requirements: - `spender` cannot be the zero address. - `spender` must have allowance for the caller of at least `subtractedValue`."
      },
      "increaseAllowance(address,uint256)": {
        "details": "Atomically increases the allowance granted to `spender` by the caller. This is an alternative to {approve} that can be used as a mitigation for problems described in {IERC20-approve}. Emits an {Approval} event indicating the updated allowance. Requirements: - `spender` cannot be the zero address."
      },
      "name()": {
        "details": "Returns the name of the token."
      },
      "owner()": {
        "details": "Returns the address of the current owner."
      },
      "renounceOwnership()": {
        "details": "Leaves the contract without owner. It will not be possible to call `onlyOwner` functions anymore. Can only be called by the current owner. NOTE: Renouncing ownership will leave the contract without an owner, thereby removing any functionality that is only available to the owner."
      },
      "symbol()": {
        "details": "Returns the symbol of the token, usually a shorter version of the name."
      },
      "totalSupply()": {
        "details": "See {IERC20-totalSupply}."
      },
      "transfer(address,uint256)": {
        "details": "See {IERC20-transfer}. Requirements: - `to` cannot be the zero address. - the caller must have a balance of at least `amount`."
      },
      "transferFrom(address,address,uint256)": {
        "details": "See {IERC20-transferFrom}. Emits an {Approval} event indicating the updated allowance. This is not required by the EIP. See the note at the beginning of {ERC20}. NOTE: Does not update the allowance if the current allowance is the maximum `uint256`. Requirements: - `from` and `to` cannot be the zero address. - `from` must have a balance of at least `amount`. - the caller must have allowance for ``from``'s tokens of at least `amount`."
      },
      "transferOwnership(address)": {
        "details": "Transfers ownership of the contract to a new account (`newOwner`). Can only be called by the current owner."
      }
    },
    "version": 1
  },
  "userdoc": {
    "kind": "user",
    "methods": {},
    "version": 1
  }
}