{
  "contractName": "Exchange",
  "abi": [
    {
      "inputs": [
        {
          "internalType": "contract BasicToken",
          "name": "_token",
          "type": "address"
        }
      ],
      "stateMutability": "nonpayable",
      "type": "constructor"
    },
    {
      "anonymous": false,
      "inputs": [
        {
          "indexed": false,
          "internalType": "address",
          "name": "user",
          "type": "address"
        },
        {
          "indexed": false,
          "internalType": "uint256",
          "name": "amount",
          "type": "uint256"
        },
        {
          "indexed": false,
          "internalType": "uint256",
          "name": "costWei",
          "type": "uint256"
        },
        {
          "indexed": false,
          "internalType": "uint256",
          "name": "balance",
          "type": "uint256"
        }
      ],
      "name": "BuyToken",
      "type": "event"
    },
    {
      "anonymous": false,
      "inputs": [
        {
          "indexed": false,
          "internalType": "address",
          "name": "user",
          "type": "address"
        },
        {
          "indexed": false,
          "internalType": "uint256",
          "name": "amount",
          "type": "uint256"
        },
        {
          "indexed": false,
          "internalType": "uint256",
          "name": "costWei",
          "type": "uint256"
        },
        {
          "indexed": false,
          "internalType": "uint256",
          "name": "balance",
          "type": "uint256"
        }
      ],
      "name": "SellToken",
      "type": "event"
    },
    {
      "inputs": [],
      "name": "ICO_RATE",
      "outputs": [
        {
          "internalType": "uint256",
          "name": "",
          "type": "uint256"
        }
      ],
      "stateMutability": "view",
      "type": "function"
    },
    {
      "inputs": [],
      "name": "owner",
      "outputs": [
        {
          "internalType": "address",
          "name": "",
          "type": "address"
        }
      ],
      "stateMutability": "view",
      "type": "function"
    },
    {
      "inputs": [],
      "name": "rate",
      "outputs": [
        {
          "internalType": "uint256",
          "name": "",
          "type": "uint256"
        }
      ],
      "stateMutability": "view",
      "type": "function"
    },
    {
      "inputs": [],
      "name": "token",
      "outputs": [
        {
          "internalType": "contract BasicToken",
          "name": "",
          "type": "address"
        }
      ],
      "stateMutability": "view",
      "type": "function"
    },
    {
      "stateMutability": "payable",
      "type": "receive"
    },
    {
      "inputs": [
        {
          "internalType": "uint256",
          "name": "amount",
          "type": "uint256"
        }
      ],
      "name": "buyToken",
      "outputs": [
        {
          "internalType": "bool",
          "name": "success",
          "type": "bool"
        }
      ],
      "stateMutability": "payable",
      "type": "function"
    },
    {
      "inputs": [
        {
          "internalType": "uint256",
          "name": "amount",
          "type": "uint256"
        }
      ],
      "name": "sellToken",
      "outputs": [
        {
          "internalType": "bool",
          "name": "success",
          "type": "bool"
        }
      ],
      "stateMutability": "nonpayable",
      "type": "function"
    },
    {
      "inputs": [
        {
          "internalType": "uint256",
          "name": "newRate",
          "type": "uint256"
        }
      ],
      "name": "updateRate",
      "outputs": [
        {
          "internalType": "bool",
          "name": "success",
          "type": "bool"
        }
      ],
      "stateMutability": "nonpayable",
      "type": "function"
    }
  ],
  "bytecode": "0x608060405268056bc75e2d6310000060015568056bc75e2d6310000060025534801561002a57600080fd5b50604051610c78380380610c78833981810160405281019061004c9190610108565b80600360006101000a81548173ffffffffffffffffffffffffffffffffffffffff021916908373ffffffffffffffffffffffffffffffffffffffff16021790555050610135565b600080fd5b600073ffffffffffffffffffffffffffffffffffffffff82169050919050565b60006100c382610098565b9050919050565b60006100d5826100b8565b9050919050565b6100e5816100ca565b81146100f057600080fd5b50565b600081519050610102816100dc565b92915050565b60006020828403121561011e5761011d610093565b5b600061012c848285016100f3565b91505092915050565b610b34806101446000396000f3fe6080604052600436106100745760003560e01c80633bd099d31161004e5780633bd099d31461011857806369ea1771146101435780638da5cb5b14610180578063fc0c546a146101ab5761007b565b80632397e4d7146100805780632c4e722e146100bd5780632d296bf1146100e85761007b565b3661007b57005b600080fd5b34801561008c57600080fd5b506100a760048036038101906100a2919061070f565b6101d6565b6040516100b49190610757565b60405180910390f35b3480156100c957600080fd5b506100d26103e1565b6040516100df9190610781565b60405180910390f35b61010260048036038101906100fd919061070f565b6103e7565b60405161010f9190610757565b60405180910390f35b34801561012457600080fd5b5061012d61060a565b60405161013a9190610781565b60405180910390f35b34801561014f57600080fd5b5061016a6004803603810190610165919061070f565b610610565b6040516101779190610757565b60405180910390f35b34801561018c57600080fd5b5061019561068a565b6040516101a291906107dd565b60405180910390f35b3480156101b757600080fd5b506101c06106ae565b6040516101cd9190610857565b60405180910390f35b600080600254670de0b6b3a7640000846101f091906108a1565b6101fa919061092a565b90508047101561020957600080fd5b600360009054906101000a900473ffffffffffffffffffffffffffffffffffffffff1673ffffffffffffffffffffffffffffffffffffffff166323b872dd3330866040518463ffffffff1660e01b81526004016102689392919061095b565b6020604051808303816000875af1158015610287573d6000803e3d6000fd5b505050506040513d601f19601f820116820180604052508101906102ab91906109be565b6102b8576102b76109eb565b5b3373ffffffffffffffffffffffffffffffffffffffff166108fc829081150290604051600060405180830381858888f193505050501580156102fe573d6000803e3d6000fd5b507fbc6a70357c1f438297a419fdda7ea10b11e5e821fa940afc814d2e1fa9c755d7338483600360009054906101000a900473ffffffffffffffffffffffffffffffffffffffff1673ffffffffffffffffffffffffffffffffffffffff166370a08231336040518263ffffffff1660e01b815260040161037e91906107dd565b602060405180830381865afa15801561039b573d6000803e3d6000fd5b505050506040513d601f19601f820116820180604052508101906103bf9190610a2f565b6040516103cf9493929190610a5c565b60405180910390a16001915050919050565b60025481565b600080600254670de0b6b3a76400008461040191906108a1565b61040b919061092a565b90508034101561041a57600080fd5b600360009054906101000a900473ffffffffffffffffffffffffffffffffffffffff1673ffffffffffffffffffffffffffffffffffffffff1663a9059cbb33856040518363ffffffff1660e01b8152600401610477929190610aa1565b6020604051808303816000875af1158015610496573d6000803e3d6000fd5b505050506040513d601f19601f820116820180604052508101906104ba91906109be565b6104c7576104c66109eb565b5b7f047d414ddce29eba94711e9709b1446c3bb9339c2472cf6ff20610f80b186912338483600360009054906101000a900473ffffffffffffffffffffffffffffffffffffffff1673ffffffffffffffffffffffffffffffffffffffff166370a08231336040518263ffffffff1660e01b815260040161054691906107dd565b602060405180830381865afa158015610563573d6000803e3d6000fd5b505050506040513d601f19601f820116820180604052508101906105879190610a2f565b6040516105979493929190610a5c565b60405180910390a1600081346105ad9190610aca565b9050600181106105ff573373ffffffffffffffffffffffffffffffffffffffff166108fc829081150290604051600060405180830381858888f193505050501580156105fd573d6000803e3d6000fd5b505b600192505050919050565b60015481565b60008060009054906101000a900473ffffffffffffffffffffffffffffffffffffffff1673ffffffffffffffffffffffffffffffffffffffff163373ffffffffffffffffffffffffffffffffffffffff161461066b57600080fd5b60015482101561067a57600080fd5b8160028190555060019050919050565b60008054906101000a900473ffffffffffffffffffffffffffffffffffffffff1681565b600360009054906101000a900473ffffffffffffffffffffffffffffffffffffffff1681565b600080fd5b6000819050919050565b6106ec816106d9565b81146106f757600080fd5b50565b600081359050610709816106e3565b92915050565b600060208284031215610725576107246106d4565b5b6000610733848285016106fa565b91505092915050565b60008115159050919050565b6107518161073c565b82525050565b600060208201905061076c6000830184610748565b92915050565b61077b816106d9565b82525050565b60006020820190506107966000830184610772565b92915050565b600073ffffffffffffffffffffffffffffffffffffffff82169050919050565b60006107c78261079c565b9050919050565b6107d7816107bc565b82525050565b60006020820190506107f260008301846107ce565b92915050565b6000819050919050565b600061081d6108186108138461079c565b6107f8565b61079c565b9050919050565b600061082f82610802565b9050919050565b600061084182610824565b9050919050565b61085181610836565b82525050565b600060208201905061086c6000830184610848565b92915050565b7f4e487b7100000000000000000000000000000000000000000000000000000000600052601160045260246000fd5b60006108ac826106d9565b91506108b7836106d9565b9250817fffffffffffffffffffffffffffffffffffffffffffffffffffffffffffffffff04831182151516156108f0576108ef610872565b5b828202905092915050565b7f4e487b7100000000000000000000000000000000000000000000000000000000600052601260045260246000fd5b6000610935826106d9565b9150610940836106d9565b9250826109505761094f6108fb565b5b828204905092915050565b600060608201905061097060008301866107ce565b61097d60208301856107ce565b61098a6040830184610772565b949350505050565b61099b8161073c565b81146109a657600080fd5b50565b6000815190506109b881610992565b92915050565b6000602082840312156109d4576109d36106d4565b5b60006109e2848285016109a9565b91505092915050565b7f4e487b7100000000000000000000000000000000000000000000000000000000600052600160045260246000fd5b600081519050610a29816106e3565b92915050565b600060208284031215610a4557610a446106d4565b5b6000610a5384828501610a1a565b91505092915050565b6000608082019050610a7160008301876107ce565b610a7e6020830186610772565b610a8b6040830185610772565b610a986060830184610772565b95945050505050565b6000604082019050610ab660008301856107ce565b610ac36020830184610772565b9392505050565b6000610ad5826106d9565b9150610ae0836106d9565b925082821015610af357610af2610872565b5b82820390509291505056fea2646970667358221220881305a71bc1f771a53d72a32153656ea40bfb200d5b7a77a49f944363a09d3464736f6c634300080b0033",
  "immutableReferences": {},
  "source": "/**\r\n*  Smart contract enabling funding and exchanging of DevCoin.\r\n*  The rate is defined by the owner of the contract, but it will never be less than ICO price.\r\n*  The price of token in ETH is 1/rate. Eg for 1 Eth the sender will get rate number of tokens.\r\n*/\r\npragma solidity 0.8.11;\r\n\r\nimport './BasicToken.sol';\r\nimport \"@openzeppelin/contracts/utils/math/SafeMath.sol\";\r\n\r\ncontract Exchange {\r\n  using SafeMath for uint256;\r\n\r\n  address public owner;\r\n  uint public ICO_RATE = 100*1e18; // tokens for 0.1 eth\r\n  uint public rate = 100*1e18; // tokens for 0.1 eth\r\n  BasicToken public token;\r\n\r\n  event BuyToken(address user, uint amount, uint costWei, uint balance);\r\n  event SellToken(address user, uint amount, uint costWei, uint balance);\r\n\r\n\r\n  constructor(BasicToken _token)public{\r\n    token = _token;\r\n  }\r\n  /**\r\n   * @dev Throws if called by any account other than the owner.\r\n   */\r\n  modifier onlyOwner() {\r\n    require(msg.sender == owner);\r\n    _;\r\n  }\r\n\r\n  /**\r\n  * constructor\r\n  */\r\n  // function Exchange(address tokenContractAddr) public {\r\n  //   token = DevCoin(tokenContractAddr);\r\n  //   owner = msg.sender;\r\n  // }\r\n\r\n  /**\r\n  * Fallback function. Used to load the exchange with ether\r\n  */\r\n\r\n    receive() external payable {\r\n        // emit Log(\"receive\",msg.sender,msg.value,msg.data)\r\n    }\r\n  /**\r\n  * Sender requests to buy [amount] of tokens from the contract.\r\n  * Sender needs to send enough ether to buy the tokens at a price of amount / rate\r\n  */\r\n  function buyToken(uint amount) payable public returns (bool success) {\r\n    // ensure enough tokens are owned by the depositor\r\n    uint costWei = (amount * 1 ether) / rate;\r\n    require(msg.value >= costWei);\r\n    assert(token.transfer(msg.sender, amount));\r\n    emit BuyToken(msg.sender, amount, costWei, token.balanceOf(msg.sender));\r\n    uint change = msg.value - costWei;\r\n    if (change >= 1) payable(msg.sender).transfer(change);\r\n    return true;\r\n  }\r\n\r\n  /**\r\n  *  Sender requests to sell [amount] of tokens to the contract in return of Eth.\r\n  */\r\n  function sellToken(uint amount) public returns (bool success) {\r\n    // ensure enough funds\r\n    uint costWei = (amount * 1 ether) / rate;\r\n    require(address(this).balance >= costWei);\r\n    assert(token.transferFrom(msg.sender, address(this), amount));\r\n    payable(msg.sender).transfer(costWei);\r\n    emit SellToken(msg.sender, amount, costWei, token.balanceOf(msg.sender));\r\n    return true;\r\n  }\r\n\r\n  function updateRate(uint newRate) onlyOwner public returns (bool success) {\r\n    // make sure rate is never less than ICO rate\r\n    require(newRate >= ICO_RATE);\r\n    rate = newRate;\r\n    return true;\r\n  }\r\n}",
  "sourcePath": "C:\\Users\\ralph\\OneDrive\\Desktop\\sol\\starter_kit\\src\\contracts\\Swap.sol",
  "compiler": {
    "name": "solc",
    "version": "0.8.11+commit.d7f03943.Emscripten.clang"
  },
  "schemaVersion": "3.4.5",
  "updatedAt": "2022-03-06T17:11:04.082Z",
  "devdoc": {
    "kind": "dev",
    "methods": {},
    "version": 1
  },
  "userdoc": {
    "kind": "user",
    "methods": {
      "buyToken(uint256)": {
        "notice": "Sender requests to buy [amount] of tokens from the contract. Sender needs to send enough ether to buy the tokens at a price of amount / rate"
      },
      "sellToken(uint256)": {
        "notice": "Sender requests to sell [amount] of tokens to the contract in return of Eth."
      }
    },
    "version": 1
  }
}